:020000040800F2
:1000000000000220753D0008613C0008633C0008C8
:10001000653C0008673C0008693C000800000000DF
:10002000000000000000000000000000912F000808
:100030006B3C0008000000002130000885300008FB
:10004000C53D0008C53D0008C53D0008C53D000888
:10005000C53D0008C53D0008C53D0008C53D000878
:10006000C53D0008C53D0008C53D0008C53D000868
:10007000C53D0008C53D0008C53D0008C53D000858
:10008000C53D0008C53D0008C53D0008C53D000848
:10009000C53D0008C53D0008C53D0008C53D000838
:1000A000C53D0008C53D0008C53D0008C53D000828
:1000B000C53D0008C53D0008C53D0008C53D000818
:1000C000C53D0008C53D0008C53D0008C53D000808
:1000D000C53D0008C53D00086D3C0008793C00089E
:1000E000C53D0008C53D0008C53D0008C53D0008E8
:1000F000C53D0008853C0008C53D0008C53D000819
:10010000C53D0008C53D0008C53D0008C53D0008C7
:10011000C53D0008C53D0008C53D0008C53D0008B7
:10012000C53D0008C53D0008C53D0008C53D0008A7
:10013000C53D0008C53D0008C53D0008C53D000897
:10014000C53D0008C53D0008C53D0008C53D000887
:10015000C53D0008C53D0008C53D0008C53D000877
:10016000C53D0008C53D0008C53D0008C53D000867
:10017000C53D0008C53D0008C53D00080000000061
:08018000C53D0008C53D000863
:1001900010B5054C237833B9044B13B10448AFF3C1
:1001A00000800123237010BD7400002000000000B7
:1001B000684D000808B5034B1BB103490348AFF372
:1001C000008008BD0000000078000020684D000895
:1001D00001F0FF01102A2BDB10F0070F08D010F8F8
:1001E000013B013A8B422DD010F0070F42B3F6D1FC
:1001F000F0B441EA012141EA014122F007047FF015
:1002000000070023F0E80256083C85EA010586EA6B
:10021000010685FA47F5A3FA87F586FA47F6A5FAA7
:1002200087F68EB9EED1F0BC01F0FF0102F00702B3
:1002300032B110F8013B013A83EA010313B1F8D15E
:100240000020704701387047002D06BF354603383F
:10025000073815F0010F07D1013015F4807F02BF78
:10026000013015F4C03F0130F0BC0138704700BFC9
:1002700053B94AB9002908BF00281CBF4FF0FF310D
:100280004FF0FF3000F072B9ADF1080C6DE904CE0B
:1002900000F006F8DDF804E0DDE9022304B0704761
:1002A0002DE9F047089E04468846002B4BD18A4230
:1002B000154667D9B2FA82F24AB1C2F1200701FAB3
:1002C00002F320FA07F7954047EA030894404FEA03
:1002D000154E230CB8FBFEF71FFA85FC0EFB1788A2
:1002E00043EA084307FB0CF1994209D9EB1807F1DF
:1002F000FF3080F01B81994240F21881023F2B446D
:100300005B1AA4B2B3FBFEF00EFB103344EA0344C5
:1003100000FB0CFCA44509D92C1900F1FF3380F037
:100320000781A44540F2048102382C4440EA07408A
:10033000A4EB0C0400271EB1D4400023C6E90043FF
:100340003946BDE8F0878B4209D9002E00F0EB80DA
:100350000027C6E9000138463946BDE8F087B3FA00
:1003600083F7002F47D18B4202D3824200F2FA80FA
:10037000841A61EB030301209846002EE0D0C6E901
:100380000048DDE702B9FFDEB2FA82F2002A40F04F
:100390008F80491B4FEA154E1FFA85F80127B1FBE4
:1003A000FEFC230C0EFB1C1143EA014308FB0CF17D
:1003B000994207D9EB180CF1FF3002D2994200F2B2
:1003C000CD808446591AA3B2B1FBFEF00EFB101487
:1003D00043EA044408FB00F8A04507D92C1900F1B2
:1003E000FF3302D2A04500F2B6801846A4EB080401
:1003F00040EA0C409FE7C7F1200CBB4022FA0CFEFC
:100400004EEA030E01FA07F420FA0CF521FA0CF378
:100410004FEA1E482543B3FBF8F92C0C08FB1933AF
:100420001FFA8EFA44EA034309FB0AF49C4202FADB
:1004300007F200FA07F10BD91EEB030309F1FF30B5
:1004400080F087809C4240F28480A9F102097344C5
:100450001B1BADB2B3FBF8F008FB103345EA0344B5
:1004600000FB0AFAA24508D91EEB040400F1FF3391
:100470006BD2A24569D90238744440EA0940A0FB16
:100480000289A4EB0A044C45C2464B4654D351D0D2
:10049000002E69D0B1EB0A0564EB030404FA0CFCEE
:1004A000FD40FC404CEA0505C6E90054002747E73B
:1004B000C2F1200320FA03F7954001FA02F021FA75
:1004C00003F34FEA154E3843010CB3FBFEF71FFA56
:1004D00085F80EFB173341EA034107FB08F38B4213
:1004E00004FA02F407D9691807F1FF3C2FD28B42B6
:1004F0002DD9023F2944CB1A81B2B3FBFEF00EFB8B
:10050000103341EA034100FB08F38B4207D9691815
:1005100000F1FF3C17D28B4215D902382944C91A81
:1005200040EA07473BE73746304609E70746E7E634
:100530001846FBE64145ABD2B8EB020A69EB0E0266
:1005400001381346A4E76046E9E7184695E7674691
:10055000D1E781467CE702382C4447E7ACF1020C36
:100560002B442FE7384608E73746E9E6704700BFD7
:1005700008B50B4B1A6842F400721A601A6842F40C
:1005800080621A601A6842F480721A60032000F0D8
:100590001BF8002003F026FB03F08EFA002008BDB4
:1005A000003C0240034A044B11681B780B44136063
:1005B000704700BF645B002000000020014B1868FA
:1005C000704700BF645B0020C31E042B10B50446B7
:1005D00003D99221094803F06DFA094AD36823F43C
:1005E000E0631B041B0C43F0BF63240243F400339D
:1005F00004F4E0641C43D46010BD00BF804D0008CB
:1006000000ED00E00F2A70B505460C46164603D9EA
:10061000AA211B4803F04EFA0F2C03D9AB2118482E
:1006200003F048FA174BDA68C2F30222C2F107035B
:10063000111D042B28BF042306294FF0FF3101FAB6
:1006400003F38CBF033A002224EA0303934001FA28
:1006500002F226EA0206002D43EA0603A8BF05F1CE
:1006600060454FEA0313BCBF05F00F05064ADBB235
:10067000AABF05F56145535585F8003370BD00BF2D
:10068000804D000800ED00E014ED00E0002803DAE2
:10069000BE21064803F00EBA4209012300F01F00F4
:1006A00003FA00F0024B43F822007047804D000827
:1006B00000E100E090F83530022B03D08023436541
:1006C000012070470268052380F83530136823F055
:1006D00001031360002070479C4B98422DE9F74FAF
:1006E00004460D4623D003F5806398421FD003F5DE
:1006F000806398421BD003F58063984217D003F5BE
:100700008063984213D003F5806398420FD003F5BD
:10071000806398420BD003F58063984207D003F5BD
:100720008063984203D0B321894803F0C3F92B6852
:100730009AB212B11B0C1B041BB1B421844803F004
:10074000B9F96B68032B17D9A3F11102012A13D948
:10075000804923F400128A420ED001F580118B42A9
:100760000AD0A1F570218A4206D07B4A934203D079
:10077000B521774803F09EF9AB68022B03D9B62167
:10078000734803F097F9DFF8D881002601232A681F
:1007900003FA06F707EA02094F4540F0C4806A6889
:1007A00022F01002022A18D12A690D2A05D90F2A2F
:1007B00003D0C721664803F07DF9F10804EB8101FD
:1007C00006F0070290000B6A0F22824023EA020C17
:1007D0002A69824042EA0C020A626A6820684FEA8B
:1007E000460B4FF0030A0AFA0BFA02F003016FEA14
:1007F0000A0A22F010020AEA000001FA0BF1013A9B
:100800000143012A216017D8EA68032A03D9DA21B3
:100810004F4803F04FF9A168EA686B680AEA0101E2
:1008200002FA0BF20A43A2606268C3F3001322EAE1
:100830000702B34013436360E36868680AEA030A87
:10084000AB6803FA0BF343EA0A03E360C3006AD51B
:10085000424A00230193516C41F480415164526C2F
:1008600026F0030101F1804102F4804201F59C3140
:10087000019206F0030C019AD1F808E04FEA8C0CC3
:100880000F2202FA0CF22EEA020E304A94421FD0D6
:1008900003F1804303F501339C424BD003F58063A1
:1008A0009C4249D003F580639C4247D003F58063A6
:1008B0009C4245D003F580639C4243D003F580639E
:1008C0009C4241D003F580639C4214BF0823072358
:1008D00003FA0CF343EA0E038B60D8F800206FEAAA
:1008E0000901C70354BF0A4049EA0202C8F80020C0
:1008F000D8F80420830354BF0A4049EA0202C8F82A
:100900000420D8F80820C70254BF0A4049EA02026E
:10091000C8F80820D8F80C30820254BF0B4049EACE
:100920000303C8F80C300136102E7FF42FAF03B04C
:10093000BDE8F08F0123CBE70223C9E70323C7E714
:100940000423C5E70523C3E70623C1E700000240EF
:10095000BB4D0008000011100000221000380240BA
:10096000003C014038B505460C4621B94FF4BF7133
:10097000044803F09FF82B691C4214BF012000209B
:1009800038BD00BFBB4D00082DE9F341044618B93E
:10099000012002B0BDE8F08103680F2B03D9E821E4
:1009A000A24803F087F82368D80718D4236899076A
:1009B0006BD42368190700F1BE8023685A0700F141
:1009C000E480A369022B04D940F2CF11974803F0C9
:1009D00071F8A269002A40F051810020D9E76368CC
:1009E00033F4803206D0B3F5A02F03D0ED218F4829
:1009F00003F060F88E4B9A6802F00C02042A07D0CC
:100A00009A6802F00C02082A0AD15B685A0207D5DC
:100A1000874B1B689B03C9D56368002BC6D1B7E71A
:100A20006368834DB3F5803F11D12B6843F4803365
:100A30002B60FFF7C3FD7E4D06462B689F03B5D4A0
:100A4000FFF7BCFD801B6428F7D90320A1E7B3F5AD
:100A5000A02F04D12B6843F480232B60E5E72A689C
:100A600022F480322A602A6822F480222A60002B35
:100A7000DFD1FFF7A3FD06462B68980396D5FFF755
:100A80009DFD801B6428F7D9DFE7E368012B04D9BB
:100A900040F21F11654803F00DF823691F2B04D99C
:100AA0004FF49071614803F005F8614B9A6812F0B9
:100AB0000C0F07D09A6802F00C02082A12D15B686A
:100AC00059020FD45A4B1A68920703D5E268012ADB
:100AD0007FF45EAF1A68216922F0F80242EAC1028F
:100AE0001A6066E7E268534BB2B101221A60FFF761
:100AF00065FD4F4D06462B689F0707D52B68226979
:100B000023F0F80343EAC2032B6052E7FFF756FDD8
:100B1000801B0228EFD998E71A60FFF74FFD444D7C
:100B200006462B6898077FF544AFFFF747FD801B0B
:100B30000228F6D989E76369012B04D94FF4B07113
:100B40003A4802F0B7FF62693B4B7AB101221A6062
:100B5000FFF734FD364D06466B6F9B073FF52DAF13
:100B6000FFF72CFD801B0228F6D96EE71A60FFF70D
:100B700025FD2F4D06466B6F9F077FF51EAFFFF7D4
:100B80001DFD801B0228F6D95FE7A368012B06D95B
:100B9000052B04D04FF4C671244802F08BFF244B80
:100BA0001A6C12F0805228D101921A6C42F08052D5
:100BB0001A641B6C03F080530193019B01261F4DA7
:100BC0002B68D8051BD5A368194D012B27D12B6F96
:100BD00043F001032B67FFF7F1FC154D074641F287
:100BE00088382B6F9A0743D5002E3FF4EAAE104A9F
:100BF000136C23F080531364E3E60026DFE72B68D1
:100C000043F480732B60FFF7D9FC07462B68D905A6
:100C1000D9D4FFF7D3FCC01B0228F7D915E7052B61
:100C20000ED12B6F43F004032B67D0E7F44D00087F
:100C30000038024000004742800E474200700040EA
:100C40002A6F22F001022A672A6F22F004022A6723
:100C5000002BC0D1FFF7B2FC41F2883807462B6F5A
:100C60009B07C1D5FFF7AAFCC01B4045F7D9ECE6AE
:100C7000FFF7A4FCC01B4045B3D9E6E63B4EB36882
:100C800003F00C03082B3FF483AE022A384D5ED1EB
:100C9000E36933F4800304D04FF4EC71354802F07B
:100CA00009FF236A3F2B04D940F2D911314802F0E1
:100CB00001FF636A323BB3F5BF7F04D94FF4ED7196
:100CC0002C4802F0F7FEA26A082A04D84FF4AA734F
:100CD000D340D80704D440F2DB11264802F0EAFEE4
:100CE000E36A023B0D2B04D94FF4EE71214802F068
:100CF000E1FE00232B60FFF761FC1C4E07463368C2
:100D000099011ED4D4E907321343626A43EA82137D
:100D1000E26A43EA0263A26A144C5208013A43EAC7
:100D20000243736001232B60FFF748FC05462368EC
:100D30009A013FF552AEFFF741FC401B0228F6D95D
:100D400083E6FFF73BFCC01B0228D8D97DE60023D1
:100D50002B60FFF733FC044633689B017FF53DAE03
:100D6000FFF72CFC001B0228F6D96EE60038024083
:100D700060004742F44D0008134908B58B6803F042
:100D80000C03042B03D0082B03D0104800E01048BC
:100D900008BD4A684B68496813F4800314BF0C48C7
:100DA0000A48C1F3881118BF002302F03F02A1FBDB
:100DB0000001FFF75DFA044B5B68C3F301430133A5
:100DC0005B00B0FBF3F0E3E7003802400024F400DE
:100DD00000127A002DE9F0410D46044610B90120B9
:100DE000BDE8F0810368013B0E2B04D94FF410716C
:100DF0006C4802F05FFE072D04D940F2412169489A
:100E000002F058FE684B1A6802F00F02AA423CD367
:100E10002268960741D42368D9076BD4624B1A68BD
:100E200002F00F02AA4200F29A8023685A0700F1EA
:100E30009F8023681B0718D5236933F480520CD098
:100E400023F40062B2F5A05F07D0B3F5C05F04D011
:100E50004FF42C71534802F02DFE544A21699368D7
:100E600023F4604343EAC1039360FFF785FF4F4BD0
:100E70004F4A9B68C3F30313D35CD8404D4B1860B3
:100E8000002002F0AFFE0020AAE7EAB21A701B6849
:100E900003F00F03AB42A2D1BAE7444B12F0040FA8
:100EA0001EBF996841F4E0519960100742BF9A68EB
:100EB00042F460429A60A36833F0800212D023F0BB
:100EC0002002902A0ED023F04002A02A0AD023F05C
:100ED0001002C02A06D0F02B04D04FF4197131480B
:100EE00002F0E8FD314AA168936823F0F0030B4358
:100EF000936090E76368032B04D940F26B21294883
:100F000002F0D8FD6268294B012A1ED11B6813F438
:100F1000003F3FF464AF254EB36823F0030313434F
:100F2000B360FFF74BFB41F288380746B36862684D
:100F300003F00C03B3EB820F3FF470AFFFF73EFBFF
:100F4000C01B4045F2D903204AE7911E01291B68C6
:100F500002D813F0007FDCE713F0020FD9E7EAB202
:100F60001A701B6803F00F03AB427FF438AF5CE7E5
:100F7000E36833F480520CD023F40062B2F5A05F32
:100F800007D0B3F5C05F04D040F2A921054802F0B4
:100F900091FD064AE168936823F4E0530B439360A4
:100FA00047E700BFF44D0008003C02400038024013
:100FB000B05000080C000020044B054A9B68C3F3A6
:100FC0008223D35C034A1068D8407047003802403F
:100FD000C05000080C000020044B054A9B68C3F376
:100FE0004233D35C034A1068D8407047003802404F
:100FF000C05000080C0000200F2303600B4B9A68C0
:1010000002F0030242609A6802F0F00282609A687D
:1010100002F4E052C2609B68DB0803F4E053036112
:10102000034B1B6803F00F030B607047003802404E
:10103000003C0240704700000368264A934210B506
:10104000044637D0B3F1804F34D0A2F57C429342AE
:1010500030D002F5806293422CD002F58062934238
:1010600028D002F58062934224D002F58062934238
:1010700020D002F5704293421CD002F57052934288
:1010800018D002F58062934214D002F58062934238
:1010900010D0A2F5983293420CD002F580629342B0
:1010A00008D002F58062934204D040F2B1110A48A0
:1010B00002F000FD2368DA6842F00102DA609A6803
:1010C00002F00702062A1EBF1A6842F001021A60E7
:1010D000002010BD000001402C4E000870477047F2
:1010E0007047704703681A69910710B504460ED51A
:1010F000DA6892070BD56FF002021A619B69012230
:101100009B07027777D0FFF7EAFF00232377236856
:101110001A69500710D5DA6851070DD56FF004022F
:101120001A619B69022213F4407F2277204668D01F
:10113000FFF7D5FF0023237723681A6912070FD51D
:10114000DA6810070CD56FF008021A61DB69042217
:101150009907227720465AD0FFF7C1FF0023237753
:1011600023681A69D20610D5DA68D0060DD56FF05B
:1011700010021A61DB69082213F4407F22772046AF
:101180004BD0FFF7ACFF0023237723681A69D10700
:1011900008D5DA68D20705D56FF001021A6120463A
:1011A00002F07EFC23681A69100608D5DA68110679
:1011B00005D56FF080021A61204600F01CF9236803
:1011C0001A69520608D5DA68500605D56FF0400254
:1011D0001A612046FFF785FF23681A69910622D518
:1011E000DA6892061FD56FF0200220461A61BDE82A
:1011F000104000F0FFB8FFF771FF2046FFF770FFC7
:1012000083E7FFF76BFF2046FFF76AFF92E7FFF7E0
:1012100065FF2046FFF764FFA0E7FFF75FFF20466A
:10122000FFF75EFFAFE710BD304A0368904212D06F
:10123000B0F1804F0FD0A2F57C4290420BD002F566
:101240008062904207D002F58062904203D002F59E
:101250007842904219D14A6823F070031343234A1D
:10126000904229D0B0F1804F26D0A2F57C42904226
:1012700022D002F5806290421ED002F58062904238
:101280001AD002F57842904216D0194A904213D0F3
:1012900002F5806290420FD002F5806290420BD03E
:1012A000A2F59832904207D002F58062904203D0B6
:1012B00002F58062904203D1CA6823F4407313435D
:1012C0004A6923F08003134303608B68C3620B6891
:1012D0008362064B984203D003F58063984201D1A4
:1012E0000B69036301234361704700BF00000140A5
:1012F0000040014010B50446002875D003683B4A01
:10130000934237D0B3F1804F34D0A2F57C42934260
:1013100030D002F5806293422CD002F58062934275
:1013200028D002F58062934224D002F58062934275
:1013300020D002F5704293421CD002F570529342C5
:1013400018D002F58062934214D002F58062934275
:1013500010D0A2F5983293420CD002F580629342ED
:1013600008D002F58062934204D04FF48571204882
:1013700002F0A0FBA36833F010020AD023F0400271
:10138000202A06D0402B04D040F20B11184802F05E
:1013900091FB236933F4807207D0B3F5007F04D04A
:1013A0004FF48671124802F085FBA36933F0800385
:1013B00004D040F20D110E4802F07CFB94F83D3051
:1013C00003F0FF0223B984F83C202046FFF732FEE9
:1013D000022384F83D302068211DFFF725FF0123FB
:1013E00084F83D30002010BD0120FCE700000140E2
:1013F0002C4E0008704770470368DA6822F4907238
:10140000DA605A6922F001025A61202380F83A30EA
:10141000704700002DE9F84342689D4B9A4204460C
:1014200004D940F6E5319B4802F044FBE36833F40D
:10143000005304D040F6E631964802F03BFB2369A6
:1014400033F4806207D0B3F5C06F04D040F6E731C3
:10145000904802F02FFB63694FF6F372134200D1FC
:1014600023B940F6E8318B4802F024FB2368E16899
:101470001A692569E06922F440520A431A61A26898
:10148000D9682A43656921F416412A4321F00C01E9
:1014900002430A43DA605A69A16922F440720A439E
:1014A000B0F5004F5A617C4A7BD1934203D002F5DC
:1014B0008062934244D1FFF78FFD676819254FF092
:1014C000640805FB00F37F00B3FBF7F3B3FBF8F30D
:1014D0001F01FFF781FD636868435B00B0FBF3F613
:1014E000FFF77AFD636868435B00B0FBF3F3B3FB7F
:1014F000F8F308FB1363DB003233B3FBF8F35B0054
:1015000003F4F876FFF768FD626868435200B0FBA9
:10151000F2F9FFF761FD6368226868435B00B0FB86
:10152000F3F3B3FBF8F308FB1393DB003233B3FBA5
:10153000F8F303F007033B4433449360BDE8F883BA
:10154000FFF73AFD676819254FF0640805FB00F3C3
:101550007F00B3FBF7F3B3FBF8F31F01FFF72CFD9C
:10156000636868435B00B0FBF3F6FFF725FD636833
:1015700068435B00B0FBF3F3B3FBF8F308FB1363C2
:10158000DB003233B3FBF8F35B0003F4F876FFF7CC
:1015900013FD626868435200B0FBF2F9FFF70CFDDF
:1015A000B9E7934202D03D4A934241D1FFF714FD7F
:1015B000676819254FF0640805FB00F3BF00B3FB13
:1015C000F7F3B3FBF8F31F01FFF706FD6368684309
:1015D0009B00B0FBF3F6FFF7FFFC636868439B00DA
:1015E000B0FBF3F3B3FBF8F308FB13631B013233D7
:1015F000B3FBF8F303F0F006FFF7EEFC6268684314
:101600009200B0FBF2F9FFF7E7FC636822686843D9
:101610009B00B0FBF3F3B3FBF8F308FB13931B0140
:101620003233B3FBF8F303F00F0333433B4484E757
:10163000FFF7C2FC676819254FF0640805FB00F34B
:10164000BF00B3FBF7F3B3FBF8F31F01FFF7B4FCE4
:10165000636868439B00B0FBF3F6FFF7ADFC63687B
:1016600068439B00B0FBF3F3B3FBF8F308FB136391
:101670001B013233B3FBF8F303F0F006FFF79CFCD9
:10168000626868439200B0FBF2F9FFF795FCBCE793
:10169000A037A000644E0008001001400014014073
:1016A00010B50446002874D0816903683A4A0029BD
:1016B00057D0934210D0A2F54C4293420CD002F581
:1016C0008062934208D002F54C42934204D040F22B
:1016D0004911324802F0EEF9A36933F4407304D0A3
:1016E0004FF4A5712D4802F0E5F9A36833F4805357
:1016F00004D04FF4A871294802F0DCF9E36933F40F
:10170000004304D040F25111244802F0D3F994F878
:10171000393003F0FF0223B984F83820204602F064
:10172000EBF92268242384F83930D36823F400537A
:10173000D3602046FFF76EFE23681A6922F49042B8
:101740001A615A6922F02A025A61DA6842F4005298
:10175000DA6000202023E06384F8393084F83A30DE
:1017600010BD9342C1D00E4A9342BED002F58062B2
:101770009342BAD002F580629342B6D002F58062FD
:101780009342B2D002F544429342AED04FF4A771D7
:10179000A8E70120E4E700BF00100140644E000804
:1017A0000044004090F83930202B18D1A9B1A2B1E3
:1017B00090F83830012B12D0C28401628284002359
:1017C0000168C363212280F83920CA6880F8383064
:1017D00042F08002CA60184670470120704702201C
:1017E000704790F83A30202B20D1E9B1E2B190F85F
:1017F0003830012B1AD0C285828500232222C36390
:1018000080F83A2002688162D16880F8383041F46B
:101810008071D160516941F001015161D16841F09D
:101820002001D160184670470120704702207047A0
:1018300090F83A30222B10B533D181680469836A5D
:101840000268B1F5805F23D15268ECB9C2F3080297
:1018500023F8022B8362C48D013CA4B2C4858CB9E9
:101860000368DA6822F02002DA60DA6822F4807213
:10187000DA605A6922F001025A61202380F83A3076
:1018800002F060F800200DE0D2B223F8012BE1E76E
:10189000591C526881620CB91A70DCE702F07F02B1
:1018A000FAE7022010BD000003681A68D96870B515
:1018B000160704465D6907D1960658D58D0656D59C
:1018C000BDE87040FFF7B4BF15F0010502D111F477
:1018D000907F4CD0D30705D5CE0542BFE36B43F0D4
:1018E0000103E363500704D51DB1E36B43F002032A
:1018F000E363930704D51DB1E36B43F00403E36393
:10190000160704D51DB1E36B43F00803E363E36BF3
:1019100043B3950604D5880602D52046FFF788FF15
:1019200023685D69E26B1107204602D415F040057B
:1019300019D0FFF761FD23685A6952060FD55A691D
:10194000606B22F040025A6148B1264B0365FEF7F6
:10195000B1FE38B1606BBDE87040036D184720469A
:1019600002F064F870BD02F061F8E563FAE716066C
:1019700028D50D0626D594F83920212AF2D1A16860
:10198000226AB1F5805F18D11188C1F3080159604E
:10199000216981B902322262E28C013A92B2E28478
:1019A000002ADFD1DA6822F08002DA60DA6842F0D9
:1019B0004002DA60D6E70132EDE7511C216212786D
:1019C0005A60E9E75006CDD54A06CBD5DA6822F051
:1019D0004002DA60202384F83930204601F07EFF8F
:1019E000C0E700BFE919000808B5806B0023C38574
:1019F000C38402F01BF808BDEFF3058313B16FF049
:101A000005007047EFF31083002BF8D1074B1868DF
:101A1000022806D1EFF31183002BF0D14FF0FF30F5
:101A200070470028FAD101221A607047E4080020AC
:101A300010B5EFF3058313B16FF0050010BDEFF3A0
:101A40001084002CF8D1094B1A68022A06D1EFF352
:101A50001183002BF0D14FF0FF30EFE7012AFAD1CC
:101A600002221A6000F09CFD2046E7E7E40800200F
:101A7000F0B587B0144600220B460592EFF30582BD
:101A800062BBEFF310824ABB274A1268022A02D1D6
:101A9000EFF3118212BB08B300228DF81320002C43
:101AA0003AD0216809B90DF11301A569002D08BFCD
:101AB00018256A1E372A2F4634D86268D20731D4D7
:101AC000666976B1B208D4E902CEBCF1000F0BD042
:101AD000BEF1530F02D9246904B1B6B9059807B015
:101AE000F0BD4FF40072EEE7BEF1000FF6D12469AD
:101AF000002CF3D105ACCDE9007492B200F023FDC7
:101B000001281CBF00230593E8E7CDE9014C0095AF
:101B100000F0E2FC0590E1E718274FF400720DF1A8
:101B20001301E7E70020DAE7E4080020034B036035
:101B3000034B0B604FF40073136070479008002054
:101B400090000020034B0360034B0B604FF4806355
:101B500013607047E8180020E808002000F108032F
:101B60004FF0FF324360C0E90223036100230360AA
:101B7000704700230361704743684B609A688A602E
:101B80009A68516099600368086101330360704787
:101B90000A68531C30B50AD103695A684A609160DB
:101BA0008B605960036808610133036030BD00F148
:101BB00008035C6825689542EFD82346F9E7D0E929
:101BC000011203698A60826851605968814208BFC6
:101BD0005A60002202611A68013A1A601868704758
:101BE00010B5044601F0E6F9A46B01F005FAB4FA69
:101BF00084F0400910BD70B51546026C866B044632
:101C000042B905689DB9406800F056FF656001362D
:101C1000A66370BD6DB9806802F000F9A368226CFC
:101C200013446268A360934201D32368A360002039
:101C3000EDE7C06802F0F2F8236CE26821685B42CD
:101C40001A448A42E2603EBF62689B18E360022D3C
:101C5000EDD10EB1013EEAE73046D8E7034610B4B5
:101C60001A6C084662B1D9685C681144A142D96017
:101C700024BF1968D960D9685DF8044B02F0CEB86A
:101C80005DF8044B704770B5044601F093F994F881
:101C9000455004F124066DB2002D14DCFF2384F8B6
:101CA000453001F0A9F901F085F994F8445004F1A8
:101CB00010066DB2002D12DCFF2384F84430BDE81D
:101CC000704001F099B9636A002BE7D0304600F00C
:101CD00055FE08B100F0DAFE013D6DB2DCE7236984
:101CE000002BE9D0304600F049FE08B100F0CEFEEE
:101CF000013D6DB2DEE7000038B50D46044640B93F
:101D00004FF0500383F31188BFF36F8FBFF34F8FF2
:101D1000FEE701F04FF9D4E90F302268A260434397
:101D2000D1181B1A13446160E3600021FF23A163F3
:101D300084F8443084F8453095B9236963B104F1DF
:101D4000100000F01BFE38B10A4B4FF080521A60B1
:101D5000BFF34F8FBFF36F8F01F04EF9012038BDF5
:101D600004F11000FFF7FAFE04F12400FFF7F6FE7D
:101D7000F2E700BF04ED00E013B51C4640B94FF098
:101D8000500383F31188BFF36F8FBFF34F8FFEE7CC
:101D900043B94FF0500383F31188BFF36F8FBFF344
:101DA0004F8FFEE74AB191B94FF0500383F311888A
:101DB000BFF36F8FBFF34F8FFEE741B14FF050037A
:101DC00083F31188BFF36F8FBFF34F8FFEE7482374
:101DD0000193019B482B08D04FF0500383F31188E7
:101DE000BFF36F8FBFF34F8FFEE70123002908BFBA
:101DF0002246C4E90F0184F8463022601946204685
:101E0000FFF77AFF204602B010BD70B50D460646BA
:101E100040B94FF0500383F31188BFF36F8FBFF3C6
:101E20004F8FFEE74843483001F034FA044650B182
:101E3000002380F8463045B92060C4E90F650121D0
:101E40002046FFF759FF204670BD00F148030360AC
:101E5000F3E700002DE9FF47884601921F4604463C
:101E600040B94FF0500383F31188BFF36F8FBFF376
:101E70004F8FFEE751B9036C43B14FF0500383F32A
:101E80001188BFF36F8FBFF34F8FFEE7022F0BD187
:101E9000E36B012B08D04FF0500383F31188BFF39D
:101EA0006F8FBFF34F8FFEE700F0F6FD50B9019E34
:101EB0004EB14FF0500383F31188BFF36F8FBFF320
:101EC0004F8FFEE700264FF00009DFF8E8A037E06B
:101ED000019D1DB901F090F8002050E016B902A84C
:101EE00000F08CFD01F088F800F09EFB01F062F834
:101EF00094F84430FF2B08BF84F8449094F84530A0
:101F0000FF2B08BF84F8459001F076F801A902A8DC
:101F100000F080FD002846D101F04CF8A26BE36B85
:101F20009A422FD101F068F8019904F1100000F0F5
:101F3000EDFC2046FFF7A7FE00F014FC50B301268D
:101F400001F038F8A26BE36B9A4201D3022FBFD1A4
:101F50003A4641462046FFF74EFE636A1BB104F144
:101F6000240000F00BFD38B1124B4FF080521A6084
:101F7000BFF34F8FBFF36F8F01F03EF8012004B025
:101F8000BDE8F08701F038F82046FFF77CFE00F04E
:101F9000E9FBD4E74FF08053CAF80030BFF34F8F0E
:101FA000BFF36F8FCBE72046FFF76DFE00F0DAFB43
:101FB00092E700BF04ED00E02DE9F8438946904622
:101FC0001F46044640B94FF0500383F31188BFF316
:101FD0006F8FBFF34F8FFEE751B9036C43B14FF0E2
:101FE000500383F31188BFF36F8FBFF34F8FFEE76A
:101FF000022F0BD1E36B012B08D04FF0500383F37A
:102000001188BFF36F8FBFF34F8FFEE701F0F0F839
:10201000EFF311864FF0500383F31188BFF36F8FF6
:10202000BFF34F8FA26BE36B9A4201D3022F22D1F1
:1020300094F845503A466DB249462046FFF7DBFD1D
:102040006B1C13D1636A0BB901200BE004F124006F
:1020500000F094FC0028F7D0B8F1000FF4D0012074
:10206000C8F8000086F31188BDE8F88301356DB229
:1020700084F84550E8E70020F4E700002DE9F0433C
:1020800085B00F460192044640B94FF0500383F3E8
:102090001188BFF36F8FBFF34F8FFEE751B9036C09
:1020A00043B14FF0500383F31188BFF36F8FBFF339
:1020B0004F8FFEE700F0F0FC50B9019E4EB14FF09B
:1020C000500383F31188BFF36F8FBFF34F8FFEE789
:1020D00000264FF00008DFF8E0903BE0019D1DB9BD
:1020E00000F08AFF002052E016B902A800F086FC3A
:1020F00000F082FF00F098FA00F05CFF94F84430A2
:10210000FF2B08BF84F8448094F84530FF2B08BFAC
:1021100084F8458000F070FF01A902A800F07AFC65
:1021200000283DD12046FFF75BFD98B3019904F1EB
:10213000240000F0EBFB2046FFF7A5FD00F012FBAA
:1021400038B94FF08053C9F80030BFF34F8FBFF359
:102150006F8F012600F02EFFA56B002DBED03946F3
:102160002046013DFFF77AFDA563236963B104F1C1
:10217000100000F003FC38B10F4B4FF080521A6092
:10218000BFF34F8FBFF36F8F00F036FF012005B014
:10219000BDE8F0832046FFF776FD00F0E3FAD8E7CC
:1021A0002046FFF770FD00F0DDFA2046FFF718FD2E
:1021B0000028CED096E700BF04ED00E030B5074A16
:1021C000002352F8335002EBC3041DB942F8331018
:1021D000606030BD0133082BF3D1FAE7685B002063
:1021E00070B504460D46164600F0E4FE94F84430FF
:1021F000FF2B04BF002384F8443094F84530FF2BB4
:1022000004BF002384F8453000F0F6FEA36B2BB921
:102210003246294604F1240000F092FB2046BDE836
:102220007040FFF730BD00002DE9F041064600F098
:10223000C1FE2E4B2E4C1A682E4F01321A602568B3
:10224000002D48D126601B68012B1FD14FF01408C8
:1022500008FB05700135FFF781FC382DF8D1DFF858
:10226000C080254D4046FFF779FC2846FFF776FCF5
:102270002248FFF773FC2248FFF770FC2148FFF764
:102280006DFC214BC3F80080204B1D60204A136871
:10229000013313601F4AF36A116814208B4200FB5C
:1022A000037006F1040188BF1360FFF765FC00F0BE
:1022B000A3FE194B1B6863B12368DA6AF36A9A427A
:1022C00007D2164B4FF080521A60BFF34F8FBFF307
:1022D0006F8FBDE8F081104B1B68002BD6D12368AF
:1022E000DA6AF36A9A4298BF2660CFE7A81D0020F9
:1022F0003C19002048190020D41D0020F01D0020AA
:102300001C1E0020081E0020401900204419002037
:10231000B81D0020BC1D0020041E002004ED00E0BC
:10232000C01D002010B590F8513004463BB9006B39
:1023300001F03CF82046BDE8104001F037B8012B11
:10234000F9D0022B08D04FF0500383F31188BFF36C
:102350006F8FBFF34F8FFEE710BD000080B5DFF831
:102360005C80124F124C134D236863B9124B1B68EB
:10237000012BF8D94FF08053C8F80030BFF34F8FCE
:10238000BFF36F8FEEE700F015FEFB68DE68301DCF
:10239000FFF715FC2B68013B2B602368013B236092
:1023A00000F02AFE3046FFF7BDFFDDE71C1E0020CF
:1023B000AC1D0020A81D00204819002004ED00E0FD
:1023C000064A13681968064B19B94FF0FF321A60B4
:1023D00070471268D268D2685268F8E74019002046
:1023E000E81D00202DE9F047DDE9098402F1804273
:1023F000266B013A06EB82069A4681464B1E26F072
:10240000070604F134020F3113F8010F02F8010B33
:10241000187808B18B42F7D1089D372D28BF372592
:102420000027E562C4E91157201D84F84370FFF7C7
:10243000A0FBC5F1380504F11800FFF79AFBE7642B
:102440002461A561646284F8507052464946304662
:1024500000F082FD2060B8F1000F01D0C8F8004004
:10246000BDE8F087F8B5164B164E1C680546306877
:1024700004300F46FFF7A3FB6B1C334607D137B17F
:10248000316811480431BDE8F840FFF775BB1A68A0
:102490006419546007D30D4A10681968BDE8F84004
:1024A0000431FFF775BB0A4A106819680431FFF759
:1024B0006FFB084B1A68A24288BF1C60F8BD00BFC2
:1024C000301E00203C190020081E00204419002066
:1024D00040190020E81D002070B586B0DDE90B54DE
:1024E00045B94FF0500383F31188BFF36F8FBFF3EB
:1024F0004F8FFEE744B94FF0500383F31188BFF3C9
:102500006F8FBFF34F8FFEE754260496049E542E20
:1025100008D04FF0500383F31188BFF36F8FBFF3E0
:102520004F8FFEE72563022584F8515005AD0195D4
:102530000A9D02940095FFF755FF2046FFF774FEB1
:10254000059806B070BD2DE9F043074685B09000B0
:1025500088461646994600F09DFE0546E8B154208F
:1025600000F098FE0446A8B1002380F851300D9B7E
:10257000056301930C9B0290009332464B46414603
:102580003846FFF72FFF2046FFF74EFE012005B02B
:10259000BDE8F083284600F009FF4FF0FF30F6E772
:1025A00010B588B0002407AA06A905A8CDE90544FE
:1025B000FFF7BCFA059B0293069B079A154916483C
:1025C000CDE900432346FFF787FFA8B100F008FBE1
:1025D000012813D14FF0500383F31188BFF36F8F9D
:1025E000BFF34F8F0D4B4FF0FF321A600C4B18604A
:1025F0000C4B1C6000F076FD08B010BD0130FBD123
:102600004FF0500383F31188BFF36F8FBFF34F8FE9
:10261000FEE700BF9D4E00085D230008E81D002076
:10262000041E0020301E0020024A1368013313608C
:10263000704700BFB41D0020014B1868704700BFF1
:10264000301E00202DE9F84F3B4B1B68002B6CD14E
:102650003A4B1C6801341C60BCB9394B1A681268CB
:1026600042B14FF0500383F31188BFF36F8FBFF374
:102670004F8FFEE7334A1968106818601160324ABC
:10268000136801331360FFF79BFE304D304F2B680A
:10269000A3424FF0000B11D93A682E4BD16A142295
:1026A0004A439A58022A28BF4FF0010B2A4A12685F
:1026B000002A0CBF58460120BDE8F88FDFF8809053
:1026C000DFF89CA0D9F8002012681AB94FF0FF3249
:1026D0002A60E1E7D9F80020D268D66871688C4298
:1026E00001D22960D8E706F104084046FFF767FAEF
:1026F000B16A19B106F11800FFF761FAF06ADAF869
:102700000010144B88424FF0140288BFCAF8000032
:10271000414602FB0030FFF72FFA3868F16AC26ABF
:10272000914228BF4FF0010BCCE70C4A13680133EC
:1027300013604FF0000BB9E7B41D0020301E0020DD
:102740004019002044190020EC1D0020E81D002045
:102750003C19002048190020341E0020B01D002024
:10276000BC1D00202DE9F0412F4C236843B94FF0E8
:10277000500383F31188BFF36F8FBFF34F8FFEE7D2
:1027800000F018FC2368013B236024682CB100246E
:1027900000F032FC2046BDE8F081244B1B68002B82
:1027A000F5D0234D234EDFF8A0801DE0EB68DC68F8
:1027B000271D04F11800FFF702FA3846FFF7FFF96A
:1027C000E36A32681420934200FB0380394688BFD5
:1027D0003360FFF7D1F9184BE26A1B68DB6A9A4253
:1027E00002D3164B01221A602B68002BDED10CB1EC
:1027F000FFF7E6FD124D2C6844B1104E0127FFF79C
:1028000021FF00B13760013CF9D12C600B4B1B68F4
:10281000002BBCD00B4B4FF080521A60BFF34F8F90
:10282000BFF36F8F0124B3E7B41D0020A81D002063
:10283000F01D0020BC1D00203C190020341E00208B
:10284000B01D002004ED00E04819002008B540B993
:102850000E4B4FF080521A60BFF34F8FBFF36F8F54
:1028600008BD0B4B196841B14FF0500383F3118839
:10287000BFF36F8FBFF34F8FFEE7FFF7D5FEFFF774
:10288000F1FDFFF76FFF0028E2D0E9E704ED00E07B
:10289000B41D0020184B1A68184BF0B512B1012274
:1028A0001A60F0BD164D1A60164A2B68142716469A
:1028B00007FB03F1501854588CB144680831646820
:1028C00044600A44944204BF62684260142202FBDE
:1028D00003625268D1680C4A11602B60E1E743B98A
:1028E0004FF0500383F31188BFF36F8FBFF34F8F07
:1028F000FEE7013BDCE700BFB41D0020341E0020D2
:10290000BC1D0020481900203C19002010B50C46C1
:1029100040B94FF0500383F31188BFF36F8FBFF3BB
:102920004F8FFEE7054B19681831FFF731F9204644
:102930000121BDE81040FFF795BD00BF3C19002004
:1029400038B50D46144640B94FF0500383F3118853
:10295000BFF36F8FBFF34F8FFEE7074B1968183136
:10296000FFF70AF9002C21460CBF28464FF0FF3034
:10297000BDE83840FFF776BD3C19002038B5C36884
:10298000DC6844B94FF0500383F31188BFF36F8FB5
:10299000BFF34F8FFEE704F118052846FFF70FF944
:1029A000104B1B68DBB9251D2846FFF708F90E4AB6
:1029B000E36A11688B4288BF13600C4A14202946D1
:1029C00000FB0320FFF7D8F8094BE26A1B68DB6ABB
:1029D0009A4283BF074B01201860002038BD29466A
:1029E0000548EFE7B41D0020BC1D00204819002059
:1029F0003C190020341E0020F01D0020034B1B68F2
:102A00000360034B1B684360704700BFEC1D002050
:102A1000301E0020F8B50C46054640B94FF0500373
:102A200083F31188BFF36F8FBFF34F8FFEE741B978
:102A30004FF0500383F31188BFF36F8FBFF34F8FB5
:102A4000FEE700F0B7FA0F4B6868196823685E1C50
:102A5000A1EB00020DD00C4E2F683668B74201D0B2
:102A600088420DD9934209D99B1A23602846FFF763
:102A7000C5FF002400F0C0FA2046F8BD0023236003
:102A80000124F7E7301E0020EC1D0020014B01223D
:102A90001A607047341E0020054B1B6833B1054B8C
:102AA0001B68002B0CBF02200020704701207047DC
:102AB000041E0020B41D002038B508B9002038BD20
:102AC0001B4B1C68844208D04FF0500383F31188DD
:102AD000BFF36F8FBFF34F8FFEE7A36C43B94FF087
:102AE000500383F31188BFF36F8FBFF34F8FFEE75F
:102AF000E16A626C013B9142A364DFD0002BDDD11F
:102B0000251D2846FFF75BF8636CE362C3F13802CA
:102B1000A261084A11688B4288BF1360064A1420DC
:102B200000FB03202946FFF727F80120C7E700BF75
:102B30003C190020BC1D002048190020F7B5114C9D
:102B400000F038FA2568BDB90F4F104E3846FFF730
:102B500005F83046FFF702F80D4B0E4A1F600E4B8A
:102B60000C211E600A2000950C4BFFF705F9206030
:102B700010B10B49FFF722FB03B0BDE8F04000F0B5
:102B80003BBA00BF2C1F0020B81E0020CC1E002026
:102B9000381E0020401E00203C1E0020E41E0020A5
:102BA000A24E0008914208B5416000610AD8D21ACD
:102BB00083699A420DD2084B011D1868FEF7E8FFA1
:102BC000002008BD9A4201D2994202D2011D034B56
:102BD000F3E70120F5E700BF3C1E0020381E00206F
:102BE00010B588B0FFF7AAFF124B1B68B3B10024E1
:102BF00007AA06A905A8CDE90544FEF7A3FF059B92
:102C00000293069B019302230093079A0A490B48FB
:102C10002346FFF761FC0A4B186040B94FF05003A0
:102C200083F31188BFF36F8FBFF34F8FFEE701204F
:102C300008B010BD2C1F0020A74E0008192D000859
:102C4000301F002030B5154685B01A46034640B9FE
:102C50004FF0500383F31188BFF36F8FBFF34F8F93
:102C6000FEE70D4C206880B10529CDE901150393DD
:102C70000DDCFFF711FF0023022808BF089A206827
:102C800018BF1A4601A9FFF7E5F805B030BD0023CB
:102C900001A9FFF791F9F8E72C1F00202DE9F34176
:102CA0001B4D4FF000082B681A6832B9194A116899
:102CB0002960136002B0BDE8F081DB68DC681E6843
:102CC000271D3846FEF77BFF636A20469847E36975
:102CD000012BE8D1A36933449E4206D2636024618C
:102CE00039462868FEF754FFDDE70023CDF8008061
:102CF000324619462046FFF7A5FF0028D3D14FF0F2
:102D0000500383F31188BFF36F8FBFF34F8FFEE73C
:102D1000381E00203C1E00202DE9F04F6A4DDFF8E0
:102D2000B88187B02F462B68D3F800B0BBF1000FF5
:102D300044D0DB68D3F800A0644CFFF775FCFFF7C4
:102D40007BFC236898428146264639D2FFF7A6FFCE
:102D5000C4F80090FFF706FDDFF87891D9F800007D
:102D6000002203A9FFF78AF90028DCD0039B002B7F
:102D7000F4DB059C636913B1201DFEF720FFFFF70C
:102D80005BFC33689842834601D2FFF787FF039AC2
:102D9000C6F800B0092AE1D80123934013F4047A5D
:102DA0007ED113F0C70F54D19B06D7D594F82830A5
:102DB000002BD3D1204600F0F9FACFE7DA46BBE783
:102DC0002060BBF1000F29D0824540D8FFF7CAFC34
:102DD0003B68DB68DC68201DFEF7F1FEE369012B30
:102DE00018D1A16953464A4651442046FFF7DAFEFE
:102DF00080B100230093524619462046FFF722FF78
:102E000040B94FF0500383F31188BFF36F8FBFF3C6
:102E10004F8FFEE7636A204698479DE72C4B1B685F
:102E20001A68B2FA82F252092A4BAAEB0901186811
:102E3000FFF7D6F9FFF796FC00288DD14FF08053AD
:102E4000C8F80030BFF34F8FBFF36F8F84E70022C5
:102E5000EAE7A169049B5A4619442046FFF7A2FEFF
:102E600000283FF47BAF636A20469847E369012B53
:102E70007FF474AFA2690499CDF800A00A445346C8
:102E800051462046FFF7DEFE00287FF467AF4FF083
:102E9000500383F31188BFF36F8FBFF34F8FFEE7AB
:102EA0000499A16141B94FF0500383F31188BFF336
:102EB0006F8FBFF34F8FFEE75B465A46594420465B
:102EC000FFF770FE4AE700BF381E0020E01E00201A
:102ED0003C1E00202C1F002004ED00E082B00023E7
:102EE00001930D4B1B68013308D04FF0500383F35F
:102EF0001188BFF36F8FBFF34F8FFEE74FF0500382
:102F000083F31188BFF36F8FBFF34F8F019B002BAB
:102F1000FCD002B0704700BF0400002008480068E1
:102F2000006880F308884FF0000080F3148862B6D0
:102F300061B6BFF34F8FBFF36F8F00DF00BF00009C
:102F400008ED00E0DFF80C00016841F47001016059
:102F50007047000088ED00E04FF0807340F8043CBB
:102F6000074B40F80C3C21F001016FF0020340F8E0
:102F7000081C40F8202C40F8243C4438704700BF1F
:102F8000DD2E00080000000000000000000000002E
:102F9000074B19680868B0E8F04F80F30988BFF361
:102FA0006F8F4FF0000080F311887047AFF30080FF
:102FB0003C1900204FF0500383F31188BFF36F8F4B
:102FC000BFF34F8F0A4A13680133012B13600DD1F1
:102FD000084B1B6813F0FF0F08D04FF0500383F32A
:102FE0001188BFF36F8FBFF34F8FFEE7704700BFAD
:102FF0000400002004ED00E0084A136843B94FF0D4
:10300000500383F31188BFF36F8FBFF34F8FFEE739
:10301000013B13600BB983F3118870470400002053
:10302000EFF30980BFF36F8F154B1A681EF0100F76
:1030300008BF20ED108A20E9F04F10602DE909004B
:103040004FF0500080F31188BFF34F8FBFF36F8FA5
:10305000FFF720FC4FF0000080F3118809BC1968CD
:103060000868B0E8F04F1EF0100F08BFB0EC108AEF
:1030700080F30988BFF36F8F704700BFAFF3008004
:103080003C19002008B54FF0500383F31188BFF3BB
:103090006F8FBFF34F8FFFF7D5FA18B1034B4FF087
:1030A00080521A60002383F3118808BD04ED00E00C
:1030B000084A0949002313600B60084B4FF47A71EA
:1030C0001B68B3FBF1F30649013B0B600723136058
:1030D000704700BF10E000E018E000E00C000020A6
:1030E00014E000E0394B3A4A13B51968914208D10F
:1030F0004FF0500383F31188BFF36F8FBFF34F8FEF
:10310000FEE71A68334B9A4208D14FF0500383F31D
:103110001188BFF36F8FBFF34F8FFEE72E4B1A78E6
:10312000D2B20192FF221A701B782C4ADBB28DF8C2
:1031300003309DF8033003F050031370284B07222F
:103140001A6000219DF80300000602F1FF340DD43F
:1031500001B11A601A68032A11D04FF0500383F3AB
:103160001188BFF36F8FBFF34F8FFEE79DF80320E9
:103170005200D2B28DF8032001212246E2E712026A
:1031800002F4E0621A60019B134ADBB21370154B24
:103190001A6842F470021A601A6842F070421A60AB
:1031A000FFF786FF104B00241C60FFF7CBFE0F4A91
:1031B000136843F040431360FFF7B0FEFFF76AFB6C
:1031C000FFF78CFE204602B010BD00BF00ED00E00E
:1031D00071C20F4170C20F4100E400E0341F0020B3
:1031E000381F002020ED00E00400002034EF00E054
:1031F000EFF305830F2B0ED9104A9B5C104A12780F
:103200009A4208D94FF0500383F31188BFF36F8FB0
:10321000BFF34F8FFEE70B4B0B4A1B68126803F49A
:10322000E063934208D94FF0500383F31188BFF352
:103230006F8FBFF34F8FFEE7704700BFF0E300E0F2
:10324000341F00200CED00E0381F002010B50F4B9C
:103250001A68824218D35C681919884201BF416814
:10326000184609195960446801198A4207D108496A
:1032700009688A421FBF5168126809194160984263
:10328000026018BF186010BD1346E1E74C5B0020D8
:103290003C1F00202DE9F0410446FFF7C5F93D49E8
:1032A0003D4D0B68FBB93D4A560702F570531DBFF3
:1032B000073222F007029B1A4FF470531344384E22
:1032C000083B23F00703002070603260C3E9000070
:1032D000981A0B60C2E90030324B1860324B18600C
:1032E0004FF000432B602F6827424ED1002C3FD077
:1032F00004F1080358071CBF23F007030833002B11
:1033000043D0294A16689E4290463ED3244A156807
:103310006868984201D22C68A4B90968A94234D0DF
:10332000296814681160C21A102A12D9E8184107D6
:103330000BD04FF0500383F31188BFF36F8FBFF3AF
:103340004F8FFEE72A462546E2E742606B60FFF7B3
:103350007DFF14496B680868F61A1F4386424FF0D8
:103360000003C8F8006038BF0E6008346F602B603F
:10337000FFF7F8F963070AD04FF0500383F3118881
:10338000BFF36F8FBFF34F8FFEE70024F0E72046B7
:10339000BDE8F0813C1F0020405B0020401F002062
:1033A0004C5B0020485B0020445B002010B50446C5
:1033B00070B3184A50F8043C1268134208D14FF019
:1033C000500383F31188BFF36F8FBFF34F8FFEE776
:1033D00050F8081C41B14FF0500383F31188BFF33C
:1033E0006F8FBFF34F8FFEE723EA020340F8043CE0
:1033F000FFF71AF9084A54F8043C1168A4F10800D0
:103400000B441360FFF722FFBDE81040FFF7AAB995
:1034100010BD00BF405B0020445B002010B5194682
:103420001446029AFEF72AFE012804D1012C03D982
:10343000024800F08FFD002010BD00BFAF4E000815
:1034400008B5FEF7AFF910B1024800F083FD012086
:1034500008BD00BFD34E00082DE9F04107460E48D5
:10346000DFF838800C46164600F0ECFC25462B1B96
:103470009E420ADC0A2000F0FDFC32462146384616
:10348000FFF7DEFF0020BDE8F08115F8011B404684
:1034900000F0D8FCEBE700BFC34E0008CD4E00089B
:1034A0002DE9F74302AD002405F8014D0746894692
:1034B0009046424629463846FEF7E0FD0128E6B22E
:1034C00004F1010403D0304603B0BDE8F0839DF859
:1034D000073009F80630ECE72DE9F04F002287B0FD
:1034E00001213220FEF791FC3E4F386010B93E4872
:1034F00000F030FD3D4800F02DFD3D4A002393468D
:10350000D9B2D1540133C82BFAD13A4D3A4C3B4988
:103510002868002301222370FEF763F9049510B197
:10352000374800F017FDDFF8F890002501213548F5
:10353000FDF718FA012830D1FA20FFF787F929465C
:10354000314800F07FFC314800F004FD0023A9F869
:1035500000300B232370237803FB0553C72B05DDB5
:10356000237803FB05533833DBB22370284B2178D3
:1035700022781B780393322302933B680498CDE9A9
:10358000009305FB01B1234B0068FFF765FF013590
:10359000EDB20A20FFF75AF9C8E70026322300935C
:1035A0002670019622781B4B11493868FFF736FFC9
:1035B00080460028EDD001461748DFF858A000F0FB
:1035C00041FC164B1AF806101AF806200593184607
:1035D000013600F037FCB045059BF3DC0A2000F013
:1035E00049FCD6E7A85B00201A500008AB4F000842
:1035F000205F0020185F0020545B0020B45B002097
:10360000BC4F000800000240CF4F0008E04F000808
:1036100008000020BC5C0020F24F000802500008A7
:10362000565B00202DE9F84F002201213220FEF7E1
:10363000ECFB204D286010B91F4800F08BFC1F4E9A
:103640001F4800F087FC01221E493068FEF7C9F8C8
:1036500010B11D4800F07EFCDFF87480DFF8749034
:10366000DFF874A02868FA224146FFF719FF0746E1
:10367000D8B10146484600F0E5FBDFF850B0002421
:1036800018F80410504600F0DDFB18F80430DBB2E7
:103690000BF804300134A742F2DC0A2000F0EAFB08
:1036A000BAB20A493068FFF7CBFE0120FFF7CEF827
:1036B000D8E700BF1C5F00200D500008B05B002061
:1036C00046500008505E002058500008E85F002077
:1036D000845D0020685000087550000830B595B032
:1036E000102200210AA800F0A4FB0021142203A844
:1036F00000F09FFB00241C4B01941A6C42F0805296
:103700001A641B6C03F080530193019B174B0294C6
:103710001A6842F480421A601B6803F480430293E3
:10372000029B01224FF48033CDE9082302254FF498
:103730008003A822CDE90E5308A80423CDE9103256
:10374000CDE91253FDF720F90F23CDE903354FF4EE
:10375000A0514FF48053CDE9061303A80521059429
:10376000FDF738FB15B030BD003802400070004056
:1037700080B596B0FCF7FCFEFFF7B0FF10220021E9
:103780000EA800F056FB0024434B00941A6B4348EC
:10379000434E444D42F080021A631A6B02F08002DD
:1037A0000092009A01941A6B42F004021A631A6B99
:1037B00002F004020192019A02941A6B42F0010293
:1037C0001A631A6B02F001020292029A03941A6BB6
:1037D00042F002021A631B6B03F002030393039B84
:1037E0000DA902230D930F93FCF776FF0DA901237A
:1037F0002D480F94CDE90D34FCF76EFF2B4B34614F
:103800004FF4E1380C273046C6E90038C6E90244D7
:10381000C6E90574F461FDF743FF254B2846C5E969
:103820000038C5E90244C5E90447C5E90644FDF787
:1038300037FF204B20481E60204B1D6000F08AFBA4
:10384000FEF7DAF81E4800F085FB2022214605A885
:1038500000F0EFFA1B4B04934FF40075182304AAF1
:1038600021461948CDE90953FEF702F9174B2022EA
:10387000186021460EA800F0DCFA154B0D930DAA36
:1038800019232146134813931295FEF7F1F8124BB2
:103890001860FEF7CDF8FEE700380240000802404D
:1038A000B06000207C5C002000000240004400402A
:1038B00000480040185F00207C500008B05B0020EA
:1038C000835000089B500008D9340008AC5B0020EE
:1038D000A7500008253600084C5E002010B403688D
:1038E000124CC28C818CA34292B20ED131B9104BD2
:1038F00010491A785DF8044BFDF754BF8A4212D282
:103900008AB10C4B891A1944F4E70B4CA3420AD133
:1039100019B90A4B0A491A78ECE78A4203D212B164
:10392000891A074BEFE75DF8044B704700440040ED
:10393000545B0020205F002000480040555B0020C1
:10394000E85F00200368304A93422DE9F3410446C2
:103950002DD1C68D838DB6B253B92C4800F072FAC2
:103960002B4901222046FDF73CFF02B0BDE8F08163
:103970009E42F5D20025264FDFF8A88001959E1BB8
:10398000AE420BDC019B002BEAD0224B4FF0805261
:103990001A60BFF34F8FBFF36F8FE1E779190023F0
:1039A00001AAD8F80000FEF707FB0135E8E71A4A3C
:1039B0009342DAD1C68D838DB6B22BB9174800F089
:1039C00041FA01221649CDE79E42FAD20025144F52
:1039D000DFF8548001959E1BAE420BDC019B002B4F
:1039E000EFD00C4B4FF080521A60BFF34F8FBFF3F4
:1039F0006F8FE6E77919002301AAD8F80000FEF7D7
:103A0000DBFA0135E8E700BF00440040664F0008DC
:103A1000B45B002004ED00E000480040894F00083E
:103A2000505E0020A85B00201C5F002038B5144ABF
:103A3000036893420CD1C48C858C1248A4B200F068
:103A400089FA2A4621461048BDE8384000F0FAB904
:103A50000E4A934212D1C48D858D0D48A4B200F058
:103A600079FA2A4621460B4800F0ECF90A4B0B493B
:103A700018680122BDE83840FDF7B3BE38BD00BF6D
:103A800000440040E64E0008064F00080048004091
:103A9000264F0008464F0008B05B0020505E002013
:103AA0000268034B9A4201D1FCF77CBD704700BF0E
:103AB000002000407047000082B00E4B00220092B0
:103AC000596C41F480415964596C01F48041009172
:103AD00000990192196C41F0805119641B6C03F03C
:103AE00080530193019B0F216FF0010002B0FCF79E
:103AF00089BD00BF0038024010B514228AB00446C8
:103B000000210DEB020000F094F92368304A934243
:103B10002ED1304B002401941A6C42F400321A6406
:103B20001A6C02F400320192019A02941A6B42F06C
:103B300001021A631B6B03F001030293029B0C202A
:103B40000223CDE905034FF0010C0323CDE907C3A0
:103B500005A9072320480993FCF7BEFD262022462D
:103B60000521FCF74FFD2620FCF790FD0AB010BDA3
:103B70001A4A9342FAD1174B1948002403941A6C3D
:103B800042F480221A641A6C02F480220392039A8F
:103B900004941A6B42F002021A631B6B03F00203D7
:103BA00004934FF44062049B0223CDE905230121D5
:103BB0000323CDE90713072305A90993FCF78CFD1F
:103BC000272022460521FCF71DFD2720CCE700BF5A
:103BD000004400400038024000000240004800401D
:103BE0000004024030B5014689B000222D20FCF7C8
:103BF00009FD2D20FCF74AFD0025154B02951A6C96
:103C0000144C42F480721A641B6C03F480730293A8
:103C100001A903A8029BFDF7EFF9FDF7CDF90E4BC3
:103C2000236040F2E733E36040000C4BB0FBF3F05D
:103C30000138606020462561A560FDF75BFB20B977
:103C40002046FDF7F9F909B030BD0120FBE700BFC0
:103C500000380240F06000200020004040420F0089
:103C60007047FEE7FEE7FEE7FEE770470148FDF715
:103C70001BBE00BFB06000200148FDF715BE00BFAD
:103C80007C5C00200148FDF72DBA00BFF0600020E9
:103C900070B50E4615460C46A31B9D4201DC284616
:103CA00070BDAFF3008004F8010BF5E730B50023D9
:103CB0004FF06044934201DB104630BDD4F8800ED3
:103CC000C50707D5D4F8000EC00703D5C85C256822
:103CD00015B120700133EDE700BFF8E708B50A4BD6
:103CE0001968024609B90949196018686946024409
:103CF0008A4206D900F068F80C2303604FF0FF30C9
:103D000008BD1A60FCE700BF585B0020346100204A
:103D10004FF0FF3070474FF400534B600020704766
:103D200001207047002070470F49D1F8883043F4D4
:103D30007003C1F888300D4B1A68002042F0010270
:103D40001A6098601A6822F0847222F480321A6035
:103D5000074A5A601A6822F480221A60D8604FF02D
:103D600000638B60704700BF00ED00E00038024048
:103D700010300024DFF834D0002103E00C4B5B58F6
:103D8000435004310B480C4B42189A42F6D30B4A6D
:103D900002E0002342F8043B094B9A42F9D3FFF7B3
:103DA000C3FF00F017F8FFF7E3FC704700000220A4
:103DB00070510008000000207400002074000020F2
:103DC00034610020FEE70000014B1868704700BF17
:103DD0001000002070B50D4E0D4CA41BA410002542
:103DE000A54209D10B4E0C4C00F0BEFFA41BA41041
:103DF0000025A54205D170BD56F8253098470135FC
:103E0000EEE756F8253098470135F2E7685100088B
:103E100068510008685100086C51000810B5431E35
:103E20000A44914200D110BD11F8014B03F8014F33
:103E3000F7E702440346934200D1704703F8011BA1
:103E4000F9E700000FB40A4B13B51C6824B1A3694D
:103E500013B9204600F036FA05AB049AA168019325
:103E6000204600F0EFFB02B0BDE8104004B0704700
:103E70001000002038B5084B1C68054624B1A36922
:103E800013B9204600F01EFAA26829462046BDE874
:103E9000384000F075BE00BF1000002070B50E461F
:103EA000054618B183690BB900F00CFAAB69AC6830
:103EB00013B9284600F006FA234B9C4217D16C68D0
:103EC000A3891B071DD52369DBB1013EA36816F842
:103ED000011F013BA360E9B9002B2EDA22460A211B
:103EE000284600F03FF8013011D00A2011E0174BAE
:103EF0009C4201D1AC68E3E7154B9C4208BFEC68DB
:103F0000DEE72146284600F07FF80028DDD04FF09C
:103F1000FF3070BD002B04DAA2699A4206DC0A2940
:103F200004D023685A1C22601970CFE72246284625
:103F300000F018F80130C9D1E9E723680A205A1CBB
:103F400022601870E5E700BFEC5000080C51000833
:103F5000CC500008024B01461868FFF79FBF00BF16
:103F600010000020F8B50E461446054618B18369C6
:103F70000BB900F0A7F9214B9C422AD16C68A369C8
:103F8000A360A3891A072ED5236963B32369206828
:103F9000C01A6369F6B28342374604DC21462846DC
:103FA00000F026F928BBA368013BA36023685A1CD4
:103FB00022601E7063690130834204D0A389DB074D
:103FC00019D50A2E17D12146284600F011F990B1D3
:103FD0000FE00B4B9C4201D1AC68D0E7094B9C42EF
:103FE00008BFEC68CBE72146284600F00DF8002812
:103FF000CCD04FF0FF373846F8BD00BFEC5000087A
:104000000C510008CC500008324B70B51D680646B4
:104010000C4625B1AB6913B9284600F053F92E4B75
:104020009C420FD16C68B4F90C309AB215072CD4AD
:10403000D00611D40922326043F04003A3814FF02F
:10404000FF303EE0254B9C4201D1AC68EBE7244BAE
:104050009C4208BFEC68E6E7510712D5616B41B19D
:1040600004F14403994202D0304600F019FA0023CB
:104070006363A38923F02403A3810023636023697E
:104080002360A38943F00803A38123694BB9A38963
:1040900003F42073B3F5007F03D02146304600F0CF
:1040A000BFF9A28912F001030CD00023A360636959
:1040B0005B42A361236953B9B4F90C3013F080005B
:1040C000BAD170BD920758BF6369A360F2E70020C0
:1040D000F7E700BF10000020EC5000080C5100086A
:1040E000CC5000088A892DE9F041054610070C469E
:1040F00058D44B68002B05DC0B6C002B02DC002035
:10410000BDE8F081E66A002EF9D0002312F4805257
:104110002F68216A2B6032D0606DA3895A0705D5BC
:104120006368C01A636B0BB1236CC01A002302468C
:10413000E66A216A2846B047431CA38906D129684C
:104140001D2948D8294ACA40D60744D500226260B2
:10415000D9042269226004D5421C01D12B6803B91D
:104160006065616B2F600029C9D004F14403994256
:1041700002D0284600F094F900206063C0E70123D4
:104180002846B047411CC8D12B68002BC5D01D2B39
:1041900001D0162B01D12F60B1E7A38943F0400372
:1041A000A381ADE70F69002FA9D093070E6808BF60
:1041B0004B690F6018BF0023A6EB07088B60B8F1AE
:1041C000000F9CDD43463A46216AA66A2846B0475E
:1041D000002806DCA38943F04003A3814FF0FF30A1
:1041E0008EE70744A8EB0008E9E700BF0100402084
:1041F00038B50B6905460C46DBB118B183690BB9BC
:1042000000F060F80C4B9C4209D16C68B4F90C309A
:104210007BB121462846BDE83840FFF763BF074B16
:104220009C4201D1AC68F1E7054B9C4208BFEC68A9
:10423000ECE7002038BD00BFEC5000080C5100082E
:10424000CC500008002310B50446C0E90033836059
:1042500081814366C281C0E9043383611946082223
:104260005C30FFF7E6FD054B6362054BA362054B2F
:10427000E362054B2462236310BD00BF0D4C0008B0
:104280002F4C0008674C00088B4C0008014900F0D7
:1042900085B800BFF141000870B54A1E6825554336
:1042A0000E4605F1740100F049F9044640B10021C1
:1042B000C0E900160C30A06005F16802FFF7B9FDF7
:1042C000204670BD836910B5044633BBC0E9123384
:1042D0000365124B124A1B688262984204BF012395
:1042E000836100F01FF86060204600F01BF8A060BA
:1042F000204600F017F80022E06004216068FFF714
:10430000A1FF01220921A068FFF79CFF02221221D0
:10431000E068FFF797FF0123A36110BDC8500008B4
:104320008D420008F8B51B4B1E68B369074613B9E8
:104330003046FFF7C7FF4836D6E90134013B03D5C5
:10434000336833B13668F7E7B4F90C506DB16834AF
:10435000F4E704213846FFF79FFF30600028F1D1D1
:104360000C233B6004462046F8BD0B4B6566C4E950
:104370000055A560C4E90335C4E90555082229465E
:1043800004F15C00FFF755FDC4E90D55C4E9125571
:10439000E9E700BFC85000080100FFFF2DE9F8431E
:1043A0008046894600F14804002614B93046BDE82D
:1043B000F883D4E90175013F01D52468F5E7AB899D
:1043C000012B07D9B5F90E30013303D029464046F9
:1043D000C84706436835EEE770B50E46B1F90E10D2
:1043E000002996B014461D4607DA00232B60B389D6
:1043F0001A0610D44FF480630EE06A4600F06CFC9D
:104400000028F2DB019A02F47042A2F500535A42EE
:104410005A412A60EEE740230020236016B070BDA9
:104420008B8973B59D0706460C4607D504F14703F3
:10443000236023610123636102B070BD01AB6A4652
:10444000FFF7CAFF00990546304600F077F848B9F3
:10445000B4F90C309A05EFD423F0030343F00203C0
:10446000A381E3E70D4BB362A389206043F080038F
:10447000A381009B6361019B20615BB1B4F90E10C5
:10448000304600F03BFC28B1A38923F0030343F03E
:104490000103A381A3891D43A581CDE78D420008B7
:1044A00038B50546002945D051F8043C0C1F002BB7
:1044B000B8BFE41800F044FC1F4A1368104633B933
:1044C000636014602846BDE8384000F03ABCA3425F
:1044D0000CD921686218934204BF1A685B68636054
:1044E00004BF521822600460ECE713465A680AB110
:1044F000A242FAD919685818A0420BD12068014489
:10450000581882421960DDD1106852685A6001441F
:104510001960D7E702D90C232B60D3E72068211854
:104520008A4204BF11685268626004BF09182160A2
:104530005C60C7E738BD00BF5C5B002070B5CD1C78
:1045400025F0030508350C2D38BF0C25002D064637
:1045500001DBA94203D90C233360002070BD00F0B9
:10456000EFFB214A1468214691B9204C23681BB9FE
:10457000304600F03BFB20602946304600F036FB19
:10458000431C24D10C233360304600F0DAFBE4E70F
:104590000B685B1B18D40B2B0FD90B60CD50CC18BC
:1045A000304600F0CEFB04F10B00231D20F0070085
:1045B000C31AD3D05A42E250D0E78C424B6816BFA0
:1045C000636013600C46EBE70C464968CCE7C41CFB
:1045D00024F00304A04205D0211A304600F006FB67
:1045E0000130CFD02560DBE75C5B0020605B002002
:1045F0009368013B002B10B4936008DA9469A342DE
:1046000001DB0A2903D15DF8044BFFF7ABBC13684B
:10461000581C1060197008465DF8044B7047F8B5D7
:1046200006460F461446D518AC4201D1002007E0DB
:104630003A4614F8011B3046FFF7DAFF431CF3D16A
:10464000F8BD00002DE9F04F0C469DB017461D4601
:10465000064618B183690BB9FFF734FE7C4B9C42C8
:1046600058D17468A38918075ED52369002B5BD0E5
:104670000023099320238DF8293030238DF82A3028
:1046800003954FF0010BB846454615F8013B0BB1B9
:10469000252B54D1B8EB070A0BD053463A46214696
:1046A0003046FFF7BCFF013000F0C280099B534445
:1046B000099398F80030002B00F0BA8000234FF0E7
:1046C000FF32CDE90523049307938DF853301A93F5
:1046D000A846052218F8011B5E48FBF779FD049BEC
:1046E00078BBD90644BF20228DF853201A0744BF57
:1046F0002B228DF853202A782A2A2AD0079AA846F6
:1047000000200A25414611F8013B303B092B69D9AD
:1047100060B324E0504B9C4201D1B468A2E74F4BF8
:104720009C4208BFF4689DE721463046FFF76CFCC9
:1047300000289DD04FF0FF301DB0BDE8F08FA84697
:10474000A2E7444A801A0BFA00F018430490454649
:10475000BEE7039A111D12680391002A01DB07923C
:1047600004E0524243F002030792049398F80030A9
:104770002E2B0ED198F801302A2B38D1039B1A1D0D
:104780001B680392002BB8BF4FF0FF3308F10208FB
:104790000593334D98F8001003222846FBF718FDC7
:1047A00040B14023401B03FA00F0049B034308F18F
:1047B0000108049398F800102A488DF82810062262
:1047C00008F10107FBF704FD002837D0264B1BBB7F
:1047D000039B073323F0070308330393099B4B44E0
:1047E000099350E705FB0232012088468AE700233F
:1047F00008F10108059319460A25404610F8012BD7
:10480000303A092A03D9002BC3D00591C1E705FB33
:10481000012101238046F0E703AB00932246134BAE
:1048200004A93046AFF30080B0F1FF3F8146D5D1F7
:10483000A3895B063FF57EAF09987DE703AB009344
:1048400022460A4B04A9304600F088F8ECE700BF86
:10485000EC5000082C5100080C510008CC50000806
:104860003251000836510008000000001F460008C1
:104870002DE9F04791461F468A680B69DDF82080D4
:104880009342B8BF1346C9F8003091F8432006465A
:104890000C4612B10133C9F800302368990642BFB3
:1048A000D9F800300233C9F80030256815F0060544
:1048B00007D104F1190AE368D9F800209B1AAB422A
:1048C00028DC94F843302268003318BF0123920695
:1048D0002DD404F1430239463046C047013020D080
:1048E0002368E568D9F8002003F00603042B08BF0D
:1048F000AD1AA36822690CBF25EAE575002593422D
:10490000C4BF9B1AED184FF000091A344D451AD157
:10491000002008E00123524639463046C0470130A6
:1049200003D14FF0FF30BDE8F0870135C3E7E11850
:104930005A1C302081F84300224494F8451082F834
:1049400043100233C5E70123224639463046C047AB
:104950000130E6D009F10109D8E700002DE9F04364
:1049600001F1430C0C46097E85B06E2917460646B8
:1049700098460C9A00F0B38022D8632936D00AD822
:10498000002900F0B980582900F0838004F1420525
:1049900084F8421032E0642901D06929F6D12068F8
:1049A0001368050603F104012AD51B681160002B6A
:1049B00003DA2D225B4284F843206F480A2239E053
:1049C000732900F09D8008D86F2920D07029DDD18F
:1049D000236843F02003236003E0752917D078296A
:1049E000D4D1782384F84530644855E01368191D04
:1049F0001B68116004F1420584F8423001238CE009
:104A00001B68116010F0400F18BF1BB2CFE713688E
:104A10002568181D1060280601D51B6802E068068D
:104A2000FBD51B8854486F2914BF0A220822002195
:104A300084F843106568A560002DC0F29580216858
:104A400021F004012160002B3DD1002D40F08E802B
:104A50006546082A0BD12368DB0708D523696268FD
:104A60009A42DEBF302305F8013C05F1FF35ACEB7F
:104A700005032361CDF800803B4603AA214630465A
:104A8000FFF7F6FE01304DD14FF0FF3005B0BDE825
:104A9000F083394884F84510136821681D1D1B6890
:104AA00015600A060BD5CA0744BF41F020012160FA
:104AB0001BB9226822F0200222601022B7E74D06BF
:104AC00048BF9BB2EFE76546B3FBF2F102FB11333F
:104AD000C35C05F8013D0B460029F5D1B9E7136821
:104AE00025686169181D106028061B6801D51960CA
:104AF00002E06A06FBD51980002323616546B9E709
:104B00001368191D11601D68626800212846FBF7B3
:104B10005FFB08B1401B606063682361002384F879
:104B20004330A7E723692A4639463046C04701305B
:104B3000AAD023689B0713D4E068039B9842B8BFB0
:104B40001846A3E701234A4639463046C04701309C
:104B50009AD00135E368039A9B1AAB42F2DCEBE78B
:104B6000002504F11909F5E7002BACD1037884F88E
:104B7000423004F142056CE73D5100084E510008F7
:104B800070B50D461446064618B183690BB9FFF798
:104B900099FB134B9C4212D17468A368013B002B14
:104BA000A36016DAA269934202DBEBB20A2B10D1A2
:104BB000224629463046BDE87040FFF7D3B9094B7D
:104BC0009C4201D1B468E8E7074B9C4208BFF468F7
:104BD000E3E723685A1C22601D70E8B270BD00BF75
:104BE000EC5000080C510008CC50000838B5064CB9
:104BF0000023054608462360FFF770F8431C02D1E6
:104C0000236803B12B6038BD3061002010B50C461D
:104C1000B1F90E1000F096F80028ABBF636DA389C0
:104C20001B1823F48053ACBF6365A38110BD2DE92D
:104C3000F0411F468B89DB0505460C46164605D517
:104C400002230022B1F90E1000F068F8A389B4F92C
:104C50000E1023F48053A38132463B462846BDE81C
:104C6000F04100F017B810B50C46B1F90E1000F085
:104C700055F8431CA38915BF606523F4805343F4A2
:104C80008053A38118BFA38110BDB1F90E1000F0AD
:104C900013B8000038B5074C0546084611460022F7
:104CA00022601A46FFF702F8431C02D1236803B1C1
:104CB0002B6038BD3061002038B5064C0023054616
:104CC00008462360FFF724F8431C02D1236803B190
:104CD0002B6038BD3061002038B5074C00230546F5
:104CE000084611462360FFF716F8431C02D12368DB
:104CF00003B12B6038BD00BF3061002038B5064CD1
:104D00000023054608462360FFF70AF8431C02D13A
:104D1000236803B12B6038BD3061002038B5074CE3
:104D2000054608461146002222601A46FEF7FAFFA1
:104D3000431C02D1236803B12B6038BD30610020D1
:104D40007047704738B5074C0546084611460022A3
:104D500022601A46FEF79CFF431C02D1236803B170
:104D60002B6038BD30610020F8B500BFF8BC08BC2E
:104D70009E467047F8B500BFF8BC08BC9E46704719
:104D80002E2E2F447269766572732F53544D333231
:104D9000463478785F48414C5F4472697665722F7B
:104DA0005372632F73746D3332663478785F686141
:104DB0006C5F636F727465782E63002E2E2F4472C1
:104DC00069766572732F53544D3332463478785F69
:104DD00048414C5F4472697665722F5372632F733A
:104DE000746D3332663478785F68616C5F677069C0
:104DF0006F2E63002E2E2F447269766572732F53C7
:104E0000544D3332463478785F48414C5F44726980
:104E10007665722F5372632F73746D3332663478F4
:104E2000785F68616C5F7263632E63002E2E2F447F
:104E30007269766572732F53544D333246347878E5
:104E40005F48414C5F4472697665722F5372632FDD
:104E500073746D3332663478785F68616C5F74693F
:104E60006D2E63002E2E2F447269766572732F5358
:104E7000544D3332463478785F48414C5F44726910
:104E80007665722F5372632F73746D333266347884
:104E9000785F68616C5F756172742E630049444C81
:104EA0004500546D725100546D722053766300209A
:104EB000213D202065727251554555455F454D5045
:104EC0005459004D6173746572202D3E00252E32B9
:104ED0005820004D6173746572203E2048414C5F3C
:104EE0004552524F52003E2048414C5F554152546A
:104EF0005F4572726F7243616C6C6261636B2055C7
:104F00005341525432003E20547858666572436FC4
:104F1000756E743D25642054785866657253697ABD
:104F2000653D25640A003C2048414C5F5541525480
:104F30005F4572726F7243616C6C6261636B205586
:104F40005341525433003C20527858666572436F87
:104F5000756E743D25642052785866657253697A7F
:104F6000653D25640A0048414C5F554152545F52EB
:104F70007843706C7443616C6C6261636B204D614B
:104F8000737465723F3F3F3F0048414C5F5541524B
:104F9000545F527843706C7443616C6C6261636BF4
:104FA00020536C6176653F3F3F3F005374617274DC
:104FB00044656661756C745461736B004D61737404
:104FC0006572203C2048414C5F4552524F52000AC6
:104FD000202D2D2D2D202564202D2D2D2D2D0A0049
:104FE0004D61737465722073656E642062797465B7
:104FF00073004D61737465722028256429203C2D4F
:10500000200025302E32582028256329007278513F
:1050100075657565536C617665205175657565209C
:10502000776173206E6F74206372656174656420AC
:10503000616E64206D757374206E6F7420626520DC
:10504000757365642E0053746172745461736B30B0
:105050003220536C61766500536C6176652048415F
:105060004C5F4552524F5200536C61766520256467
:10507000202D3E200025302E3258200020737461F0
:105080007274007853656D6170686F726543726504
:1050900061746542696E617279200064656661754C
:1050A0006C745461736B006D795461736B303200B2
:1050B00000000000000000000102030406070809C8
:1050C00000000000010203041400002000000000A2
:1050D00000000000000000000000000000000000D0
:1050E00000000000000000000000000000000000C0
:1050F00000000000000000000000000000000000B0
:10510000000000000000000000000000000000009F
:10511000000000000000000000000000000000008F
:10512000000000000000000000000000232D302BD4
:105130002000686C4C006566674546470030313298
:1051400033343536373839414243444546003031EF
:10515000323334353637383961626364656600004E
:0851600040B1FF7F01000000D7
:04516800B501000885
:04516C0091010008A5
:1051700001000000AAAAAAAA010000000024F4006D
:105180001400002000000000EC5000080C51000842
:10519000CC500008000000000000000000000000EB
:1051A00000000000000000000000000000000000FF
:1051B00000000000000000000000000000000000EF
:1051C00000000000000000000000000000000000DF
:1051D00000000000000000000000000000000000CF
:0451E00000000000CB
:0400000508003D753D
:00000001FF
